:020000040800F2
:1000000000B80020450100081965000823530008C6
:10001000CD5C0008651300086D9600080000000024
:100020000000000000000000000000006F830008D6
:10003000351B0008000000009D7A0008518C000864
:100040005F0100085F0100085F0100085F01000810
:100050005F0100085F0100085F0100085F01000800
:100060005F0100085F0100085F0100085F010008F0
:10007000B51800085F010008C1180008CD18000875
:10008000D9180008E51800085F0100085F010008A2
:100090005F0100085F0100085F010008A12100085E
:1000A0005F0100085F0100085F0100085F010008B0
:1000B0005F0100085F010008018D00085F01000872
:1000C0005F0100085F0100085F0100085F01000890
:1000D0005F010008C994000845950008B59500081F
:1000E0005F0100085F0100085F0100085F01000870
:1000F000318D00085F0100085F0100085F01000802
:100100005F0100085F0100080D8D00085F01000815
:100110005F0100085F010008198D0008258D0008A7
:100120005F0100085F0100085F0100085F0100082F
:10013000DFF80CD000F060FC0048004789A90008F7
:1001400000B800200648804706480047FEE7FEE763
:10015000FEE7FEE7FEE7FEE7FEE7FEE7FEE7FEE777
:10016000B98C000831010008202A04DB203A21FA6A
:1001700002F00021704721FA02F3D040C2F12002C0
:1001800091400843194670470649074A086850439A
:1001900043F2390210440860400870470149086082
:1001A00070470000680200206D4EC641D2B201E0E7
:1001B00000F8012B491EFBD270470022F6E710B56C
:1001C00013460A4604461946FFF7F0FF204610BDC5
:1001D000F0B480EA0102D40F4200B2EB410F02D228
:1001E0000246084611464A0042D0C30DDDB2C1F3B3
:1001F000C752AD1A202D35DAC1F3160141F40002C1
:1002000004B15242C5F1200602FA06F12A41104417
:10021000B3EBD05F23D0C4B1012DA0EBC35009DCF8
:10022000F0BC4FF0004202EAC352DBB200F500001E
:1002300000F027BB400000F1807000EBC350A0F13C
:10024000807040EAD170490009E0490841EAC07174
:10025000A0EBC35000F50000400800EBC350F0BC19
:1002600000F006BB6142012202EB4101001BF6E7F0
:10027000F0BC704781F00041AAE780F00040A7E79A
:1002800080EA010210B502F00043400022D04A008B
:100290001FD0010E01EB1261C0F35600C2F35602EB
:1002A00040F4000042F40002A0FB022000047F3969
:1002B000140400D0401C50EA124001D44000491EF2
:1002C000C2B20C0604EBD010401C4008802A02D0B9
:1002D00003E0002010BD20F00100002900DA00201A
:1002E000184310BD30B480EA010202F0004530F03E
:1002F000004221F0004013D090B1C30DD40DC2F3E1
:100300001601C0F31600E41A41F4000140F40002A3
:100310007D34914201D3641C00E04900002C02DAD4
:1003200030BC002070474FF400000023914201D3FD
:10033000891A034340084FEA4101F7D151B1914274
:1003400002D14FF0004105E002D24FF0010101E07F
:100350006FF0010103EBC450284430BC00F088BAB0
:10036000420005D0C0F3C7525242914201DC002046
:10037000704700EBC15070472DE9FE4F804681EA7F
:100380000300C00F0C46009021F0004123F000450F
:10039000B8EB0200A94105D24046214690461C46D2
:1003A0000B46024623F00040104347D0270DC7F309
:1003B0000A00C3F30A510290401A019040286BDAF8
:1003C000C3F3130040F4801B0098924620B1002331
:1003D000D2EB030A63EB0B0B01985946C0F14002C4
:1003E000504600F024FA06460D4650465946019AFA
:1003F00000F02CFA10EB08006141002487EA11524A
:1004000084EAE7731A4340D0009A62B3019A012A42
:100410004FEA075215DC001B61EB02014FF000426E
:1004200002EA0752CDE90042001C41F58011324634
:100430002B4600F063FA03B0BDE8F08F404621463A
:10044000F9E7001B61EB0201001C41F58013001865
:100450005B412018A2F5001747EB030140EAD57075
:10046000B6196D4111E06D084FEA360645EAC075D0
:100470004FEA0752001B61EB0201001C41F580119D
:1004800049084FEA30000019514132462B4603B06B
:10049000BDE8F04F00F023BA00980122400000238D
:1004A000D0EB020263EBE073009821464FEAE07460
:1004B000B8EB000061EB0401E9E783F000435BE780
:1004C00081F0004158E72DE9FE4F81EA030404F072
:1004D000004421F0004100944FF0000B23F0004352
:1004E00050EA01045ED052EA03045BD0C3F30A541D
:1004F000C1F30A552C44A4F2F3340194A0FB025436
:10050000C1F3130141F48011C3F3130343F48013C7
:1005100001FB024400FB034E840A970A44EA81541B
:1005200047EA8357A4FB076802958D0A05FB0785F8
:100530004FEA932C04FB0C542705029D4FEA065802
:1005400047EA1637B5EB08056EEB070C870E920EDF
:1005500047EA811742EA8312A7FB0201B6EB0B01BF
:1005600064EB00042B0D43EA0C335E1844EB1C5083
:10057000DA465146E7FB0201C5F313044FEA0B3399
:1005800043EA14534FEA0432019C43EA0603A4F100
:100590000C040294009CCDE900B400F0AFF903B064
:1005A000BDE8F08F00200146F9E72DE9F04D81EA22
:1005B000030404F0004B21F0004514464FF0000AFC
:1005C00023F0004150EA050220D054EA01021DD078
:1005D000C5F30A570246C5F31303C1F31300C1F371
:1005E0000A5640F4801543F48013A7EB0608101B4D
:1005F000D64608F2FD3873EB050002D308F1010876
:1006000001E092185B41B8F1000F03DA00200146C7
:10061000BDE8F08D00204FF48011064684460EE0C0
:10062000171B73EB050705D3121B63EB050306438A
:100630004CEA010C49084FEA300092185B4150EA3D
:100640000107EDD152EA030012D082EA040083EAE6
:100650000501084305D0101BAB4106D2012200233F
:1006600006E000224FF0004302E06FF00102531059
:100670001AEB06004CEB085110EB0A0041EB0B01A2
:10068000BDE8F04D00F02BB9C10F80EAE0700844DE
:10069000CA079623002100F0F4B8962300221146E1
:1006A00000F0EFB80EB540F2334102910021CDE9E0
:1006B00000110A460B4600F021F903B000BD20F0FE
:1006C0000040C10DC0F3160040F400007F2901DA9C
:1006D00000207047962903DCC1F19601C84070479D
:1006E000963988407047C1F30A5210B5C1F313011F
:1006F00040F2FF3341F480119A4201DA002010BD2C
:1007000040F233439A42A2F2334203DC5242FFF7F3
:100710002BFD10BD904010BD00F0004230F00040B5
:100720000AD0C10D01F56071C0F3160042EA015113
:10073000C20840071143704700200146704701F08E
:10074000004330B421F0004150EA010206D00A0D06
:10075000A2F56072C1F31301002A02DC30BC002054
:100760007047440F44EAC104C100E01830BC00EBFC
:10077000C25000F07DB80000002801DBC0F100404D
:10078000002901DBC1F1004181427047002801DBF3
:10079000C0F10040002901DBC1F1004188427047EF
:1007A00030B50B46014600202022012409E021FA41
:1007B00002F59D4205D303FA02F5491B04FA02F53E
:1007C0002844151EA2F10102F1DC30BD2DE9F05FD5
:1007D0000546002092469B468846064681464024B0
:1007E0001BE02846414647462246FFF7BDFC5346DC
:1007F0005A46C01A914110D311461846224600F0BD
:1008000016F82D1A67EB01084F46224601200021F9
:1008100000F00DF817EB00094E41201EA4F1010471
:10082000DFDC484631462A464346BDE8F09F202A91
:1008300004DB203A00FA02F1002070479140C2F137
:10084000200320FA03F3194390407047202A06DB67
:10085000CB17203A41FA02F043EAE07306E041FA8E
:1008600002F3D040C2F1200291400843194670477C
:100870000029A8BF7047401C490008BF20F00100B4
:10088000704710B4B0FA80FC00FA0CF050EA010492
:1008900004BF10BC704749B1CCF1200421FA04F424
:1008A00011FA0CF118BF012121430843A3EB0C01FD
:1008B000CB1D4FEA00614FEA102042BF002010BC60
:1008C000704700EBC35010440029A4BF10BC704710
:1008D000401C490008BF20F0010010BC704710B553
:1008E000141E73F1000408DA401C41F10001921853
:1008F0005B411A4301D120F0010010BD2DE9F04DFC
:1009000092469B4611B1B1FA81F202E0B0FA80F250
:1009100020329046FFF78BFF04460F4640EA0A005C
:1009200041EA0B0153465A46084313D0114653EA95
:10093000010019D0C8F140025046FFF715FC0546EA
:100940000E46504659464246FFF771FF084305D010
:10095000012004E020463946BDE8F08D0020054323
:1009600046EAE0762C4337430A986305E40AA0EB95
:1009700008000022FD0A44EA47540A3002D500204C
:100980000146E9E7010510196941DDE9084500194B
:100990006941BDE8F04DA2E7C1F30A52C1F313016A
:1009A00040F2FF3341F480119A4202DA00200146FE
:1009B000704740F233439A42A2F2334202DC524281
:1009C000FFF7D2BBFFF733BF30B5041E71F100044F
:1009D00004DB4FF00044404264EB0101141E73F14C
:1009E000000405DB1C464FF00043524263EB040356
:1009F000994208BF904230BD064C074D06E0E068C2
:100A000040F0010394E8070098471034AC42F6D355
:100A1000FFF792FBAC1A0208CC1A020870B58C18CA
:100A200010F8015B15F0070301D110F8013B2A1102
:100A300006D110F8012B03E010F8016B01F8016BEF
:100A40005B1EF9D12B0705D40023521E0DD401F8EB
:100A5000013BFAE710F8013BCB1A921C03E013F8B4
:100A6000015B01F8015B521EF9D5A142D8D30020E9
:100A700070BD000070B5044600688168C943C907AD
:100A80001CD1816821F00101816002F05FFE054602
:100A90000FE000BF02F05AFE401B022809D9A06AED
:100AA00040F01000A062E06A40F00100E062012026
:100AB00070BD20688068C043C007EBD0002070BDC7
:100AC0002DE9F84F7724174D174FDFF86080002687
:100AD0004FF4486A4FF00109AE711C2C00D11A2462
:100AE00004EBC40000EB041007EBC01152460F48A2
:100AF00007F026FB06F0ACF9502328220021052040
:100B0000CDF8008006F0AEF809A228212D2006F0CD
:100B100045FF06F0D7FE85F80690641EDCD5BDE8DB
:100B2000F88F00000000002000A60E000405002041
:100B3000415420594F552053455649434500000024
:100B40002DE9F84F294C0026DFF8A480E17BDFF87F
:100B5000A4904FF44860012719B30A25824605EB9B
:100B6000C50000EB051008EBC011A67152462148E4
:100B700007F0E6FA06F06CF9502328220021052040
:100B8000CDF8009006F06EF81BA228212D2006F06B
:100B900005FF06F097FEA7716D1EE0D5E673BDE870
:100BA000F88F0025824605EBC50000EB0511A67104
:100BB00008EBC11152460F4807F0C2FA06F048F997
:100BC0005023282200210520CDF8009006F04AF895
:100BD00009A228212D2006F0E1FE06F073FE6D1C0F
:100BE000A7710B2DDFDBE773D9E7000000000020C1
:100BF00000A60E0004050020415420594F552053F3
:100C0000455649434500000010B5FFF759FF044C15
:100C100002E000BFFFF794FFA08B0328FAD110BDBC
:100C20000000002070B50178FF291ED141785529B8
:100C30001BD10179022918D141886FF4004249BAC9
:100C40008C180122304B3149092C0ED2DFE804F018
:100C5000050E172029363F514800B0F8050040BA6C
:100C60000880012801D92A49088070BDB0F8050024
:100C70004D8844BAA542F8D040BA488041E0B0F867
:100C800005008B8842BA9342EFD040BA888070BD8D
:100C9000B0F80500CD8844BAA542F8D040BAC88063
:100CA0002FE0B0F805400E8965BAAE42EFD064BAC5
:100CB0000C81B0F8050040BA488222E0B0F8050087
:100CC0004D8944BAA542E2D040BA488119E0B0F853
:100CD00005008D8944BAA542D9D040BA888110E078
:100CE000B0F80500CD8944BAA542D0D040BAC88139
:100CF00007E0B0F805000D8A44BAA542C7D040BA53
:100D000008829A7070BD0000440000208C500020C2
:100D10001C00002010B50178FF291BD1417855290E
:100D200018D10179022915D141884ABA7D49322A60
:100D30007DD02EDC132A7BD016DC042A79D00ADC85
:100D4000012A7DD0022A76D0032A03D1B0F805000B
:100D500040BA888010BD112A6ED0122AFAD1B0F89C
:100D6000050040BA888110BD222A66D008DC142A0A
:100D700070D0212AF7D1B0F8050040BA488210BDE2
:100D8000232A68D0312AFAD1B0F8050040BA088386
:100D900010BD40F20524A2F20523A24270D01CDC53
:100DA00040F20224A2F20223A2426AD00CDC412AC1
:100DB0007FD0422A67D0A2F50072013AE8D1B0F89C
:100DC000050040BA088410BD012B71D0022BFAD166
:100DD000B0F8050040BAC88410BD032B41D008DC30
:100DE000012B70D0022BF7D1B0F8050040BA8885EE
:100DF00010BD012403F2C623B3F5804379D003F676
:100E00009513B3F5005FF3D1B0F8050040BAA0F533
:100E1000B4415A39ECD100F0E1FA4348047041483A
:100E2000143800880128E3D1BDE8104006E03AE01C
:100E300021E011E004E008E018E02AE004F0AEBB95
:100E4000B0F8050040BA088010BDB0F8050040BAFF
:100E5000488010BD18E021E0B0F8050040BAC88015
:100E6000F7E7B0F8050040BA0881F2E7B0F80500EE
:100E700040BA4881EDE7B0F8050040BAC881E8E71C
:100E80002CE021E015E019E0B0F8050040BA088236
:100E9000DFE7B0F8050040BA8882DAE7B0F805006D
:100EA00040BAC882D5E7B0F8050040BA4883D0E719
:100EB0000FE0B0F8050040BA8883CAE7B0F8050033
:100EC00040BAC883C5E70FE0B0F8050040BA4884CF
:100ED000BFE7B0F8050040BA8884BAE7B0F805006B
:100EE00040BA0885B5E704E0B0F8050040BA488587
:100EF000AFE7417901F05A02817901F0A5010A4377
:100F000009491D318A704279807982F0570200F0D8
:100F100057000243CA700B22044804F0D1F9044878
:100F2000047096E7A050002044000020BC4E002032
:100F30000800002010B50178FF2935D141785529E6
:100F400032D1017902292FD34188184A49BAA1F533
:100F5000407101390BD0012918D0022921D11BE0A1
:100F6000431854185B79491C84F8A63089B2037978
:100F70008B42F5D80D4814380088012811D10C484F
:100F8000018803290DD0032101800AE0B0F8050093
:100F900040BAA2F8660104E0B0F8050040BAA2F831
:100FA000680104490120087010BD0000A050002015
:100FB0001C0000204400002010B5104904074FF029
:100FC00001024FF0000301D54B7102E0840600D509
:100FD0004A71C40701D08A7000E08B70840701D584
:100FE000CA7000E0CB70440701D50A7100E00B71B4
:100FF000C00601D58A7110BD8B7110BD590000204B
:1010000010B50178FF2921D1417855291ED10179E8
:1010100002291BD1418840F203544ABA3A49A2F24C
:101020000353A24251D01EDCB2F5866F41D00EDCD4
:10103000B2F5806F33D0B2F5826F35D0B2F5846FE0
:1010400004D1B0F8050040BAA1F8680010BDA2F5BF
:10105000A062013A33D0012AF8D1B0F8050040BAB5
:10106000A1F8BE0010BD042B41D00BDC012B32D007
:10107000022B36D0032BF5D1B0F8050040BAA1F809
:10108000C60010BD0E2B38D00F2BFAD1B0F80500DA
:1010900040BAA1F8CA001D490120487010BDB0F83F
:1010A000050040BA088010BDB0F8050040BAC887F6
:1010B00010BDB0F8050040BAA1F8920010BDB0F81C
:1010C000050040BAA1F8BC0010BDB0F8050040BA58
:1010D000A1F8C00010BDB0F8050040BAA1F8C200E8
:1010E00010BDB0F8050040BAA1F8C40010BDB0F8BA
:1010F000050040BAA1F8C80010BDB0F8050040BA1C
:10110000A1F8CC0010BD0000BE5200204400002019
:1011100010B50178FF2947D14178552944D141883C
:1011200040F214444ABA8E49A2F21443A2426ED04D
:101130001CDC40F20544A2F20543A24258D00BDC6D
:10114000A2F58062013A2CD0012A2ED0022A38D092
:10115000032A29D1002247E0012B56D00C2B62D064
:101160000D2B6DD00E2B1FD1002283E01D2B74D0D0
:1011700009DC0D2B72D00E2B71D00F2B70D0102BE1
:1011800012D10022B5E01E2B6BD01F2B6AD0202B72
:101190000AD10022DFE083188C185B79521CA370FF
:1011A000D2B203799342F6D810BD002205E083182D
:1011B0008C185B79521C2373D2B203799342F6D810
:1011C00010BD002205E083188C185B79521CA375B2
:1011D000D2B203799342F6D810BD83188C185B798C
:1011E000521C84F82030D2B203799342F5D810BD56
:1011F000002206E083188C185B79521C84F82A3090
:10120000D2B203799342F5D810BD002207E035E051
:1012100083188C185B79521C84F83430D2B203796D
:101220009342F5D810BD002206E083188C185B7934
:10123000521C84F84030D2B203799342F5D810BDE5
:10124000002206E083188C185B79521C84F84A301F
:10125000D2B203799342F5D810BD4EE01BE027E0EF
:1012600033E057E063E083188C185B79521C84F8F4
:101270005430D2B203799342F5D8EDE7002206E06C
:1012800083188C185B79521C84F85E30D2B20379D3
:101290009342F5D8E0E7002206E083188C185B79CA
:1012A000521C84F86A30D2B203799342F5D8D3E75E
:1012B000002206E083188C185B79521C84F8743085
:1012C000D2B203799342F5D8C6E7002206E083182C
:1012D0008C185B79521C84F87E30D2B20379934229
:1012E000F5D8B9E783188C185B79521C84F88830DC
:1012F000D2B203799342F5D8AEE7002206E0831814
:101300008C185B79521C84F89430D2B203799342E2
:10131000F5D8A1E7002206E083188C185B79521CEF
:1013200084F89E30D2B203799342F5D894E7002234
:1013300006E083188C185B79521C84F8A830D2B26E
:1013400003799342F5D887E783188C185B79521C90
:1013500084F8B230D2B203799342F5D87CE700002A
:10136000BE520020FEE7000010B50C4609F0ECFA72
:101370000D4B00EB800220461A8009F0E5FA00EBE5
:1013800040004FF6FF7101EA4000588019888842FA
:1013900002D91880012000E00020987118884000D0
:1013A0004C30988010BD00003A0000200020044A14
:1013B00001461318401C83F8A610C028F9DB7047BB
:1013C000A05000200020044902460A54401C80B26C
:1013D0006428FAD37047000044A4002070B5594C2B
:1013E0000A25208850B1B0FBF5F1B0FBF5F205FB02
:1013F000110355A104F5B57008F024FE62881AB1F6
:1014000054A1564808F01EFEA088FFF74BF9544E31
:1014100000223346FFF7C9F8024650480B4651A157
:101420000A3008F00FFEE28822B14C4850A1143077
:1014300008F008FE608950B1B0FBF5F1B0FBF5F2A1
:1014400005FB1103454840A11E3008F0FBFDA289B1
:1014500022B142483FA1283008F0F4FDE089FFF7AF
:1014600021F900223346FFF7A0F802463B480B461D
:101470003CA1323008F0E6FD228A22B137483CA177
:101480003C3008F0DFFD608A60B1FFF70BF9002205
:101490003346FFF78AF8024630480B4636A14630FD
:1014A00008F0D0FDA28A22B12C4831A1503008F0BA
:1014B000C9FD208BFFF7F6F800223346FFF775F8D9
:1014C000024626480B462FA15A3008F0BBFD628B1E
:1014D00022B122482EA1643008F0B4FDE28822B186
:1014E0001E482CA18C3008F0ADFD628822B11B484B
:1014F00028A1783008F0A6FD228A22B1174825A13C
:10150000823008F09FFD608950B1B0FBF5F1B0FB6F
:10151000F5F205FB1103114820A16E3008F092FD91
:10152000228822B10D4820A1963008F08BFD6289F7
:10153000002A06D0BDE8704008481BA1A03008F082
:1015400081BD70BDA0500020253032642E2531644D
:101550002420000025644D687A20000014520020E9
:10156000000024402530322E316625252020000041
:10157000256452706D2000002530332E3166242002
:10158000000000002530322E3166252520000000A5
:1015900025640000253034640000000025303264EA
:1015A0002E25316400000000253033642300000044
:1015B0002DE9FC5F3B4901F11E00CDE90010FFF76A
:1015C000D3FE394901203A4C48713648002532385B
:1015D000DFF8D89000F15A0B04F13A0800F1640AE0
:1015E00005F036FCB9F8061099F8020005F0B2F9DA
:1015F00000F00EFEE07A5A4600EB4501A07A283949
:1016000006F0E2F998F80600464628B1E07A009A1A
:1016100000EB4501A07A08E03088A17A009A0844DE
:101620007188401AE17A01EB45012130193906F041
:10163000B5F9E07A6F4200EB4701A07A5731019A81
:1016400006F096F9E07A328800EB4701A07A57312C
:1016500012301044524606F08BF9C5F11400FFF722
:1016600013F80746B088FFF718F83946FEF73AFE38
:101670000646A07A47003846FFF70FF83146FEF7D6
:10168000A7FDFFF71CF882B2E07A0F232C30C1B21D
:10169000384601F05CFA06F015F96D1C142D9FDB3D
:1016A000BDE8FC9FC4AF0020CD0100208C5000207D
:1016B000000000202DE9FE4F03214AF2010007F04F
:1016C000D7FF3B490020487104F026FE394CA08822
:1016D000FEF7E3FF02903948A04600F15A0101915C
:1016E00028391325DFF8D0903A3C00F1500B00F177
:1016F000640A009105F0ACFBB9F8061099F80200F5
:1017000005F028F900F084FDE07A019A00EB45012C
:10171000A07A283906F058F998F80600464628B10C
:10172000E07A009A00EB4501A07A08E03088A17ABF
:10173000009A08447188401AE17A01EB4501213092
:10174000193906F02BF9E07A6F4200EB47015A464F
:10175000A07A573106F00CF9E07A328800EB4701A5
:10176000A07A573112301044524606F001F9C5F103
:101770001400FEF789FF01460298FEF7B3FD064606
:10178000A07A47003846FEF788FF3146FEF720FD75
:10179000FEF795FF82B2E07A0F232C30C1B23846B3
:1017A00001F0D5F906F08EF86D1EA3D5BDE8FE8FC9
:1017B000CD0100203A0000208C50002092AF002084
:1017C0002DE9F041204901F11E000F460646FFF7C2
:1017D000CBFD1E4C1C4A2832E17AA07A06F0F4F8C0
:1017E00004F13A05A87918B13A46E17AA07A06E000
:1017F0002888A17A3A4608446988401AE17A21305B
:101800000F3106F0CBF8E17A3246A07A2F3106F09C
:10181000AFF8A07A2988123008440B4AE17A3232B4
:101820002F3106F0A5F8A988A07A0F2301EB40011B
:101830008AB2E17A40002C31C9B201F088F9BDE8E2
:10184000F04100F0E5BC0000C4AF00200000002023
:101850002DE9F041FFF7ACFE0025134C134E144F59
:1018600016E02078A0B12570A07818B1A5700620E8
:10187000A08314E005F0ECFAF188B07805F06AF87E
:10188000FFF79EFF06F01EF80421384601F054FFD2
:10189000A08B0228E5D00028E3D00128E1D0BDE8E4
:1018A000F041FFF707BF0000000000208C5000202F
:1018B00000140140014801F091BC0000444B00209D
:1018C000014801F08BBC0000C04F0020014801F02E
:1018D00085BC00007C4F0020014801F07FBC000067
:1018E00004500020014801F079BC0000485000205D
:1018F00030B590F840500124AC40C56B6C60046872
:1019000063604368102B036803D099600068C2606D
:1019100030BD9A600068C16030BD00002DE9F04123
:1019200015460C4606460BB303F052FDD02003F0DB
:101930007FFD70BB304603F07BFD03F049FDD120F5
:1019400003F076FD00266F1E0DE000BF03F016FDCC
:101950002070BE4202D103F0FBFC01E003F0E2FC88
:10196000761CF6B2641CAE42F0D312E003F030FDF8
:10197000D02003F05DFD60B9304603F059FD00262C
:1019800005E0207803F054FD761CF6B2641CAE42EC
:10199000F7D3BDE8F04103F033BD00001CB5234C84
:1019A00038B30123072269460020FFF7B7FF9DF8EF
:1019B000000000F07F0020709DF8010000F07F0023
:1019C00060709DF8020000F03F00A0709DF80300D9
:1019D00000F00700E0709DF8040000F03F00207167
:1019E0009DF8050000F01F0060719DF80600A071D1
:1019F0001CBD20788DF8000060788DF80100A0787B
:101A00008DF80200E0788DF8030020798DF804004D
:101A100060798DF80500A0798DF806000023072273
:101A200069461846FFF77AFF1CBD00003F02002000
:101A300070B51C4CA08C002833D0608C002830D0AE
:101A4000E08C07282DD894F82C00223403F058FCA1
:101A5000154D2870207A03F053FC6870A07903F0CC
:101A60004FFCA870A07803F04BFC2871207803F09D
:101A700047FC6871A088223C88B100F0070003F0A1
:101A80003FFCE87094F82000A0F5FA60C0B203F0C3
:101A900037FCA871BDE87040034800F007B8072084
:101AA000EFE770BDA05000203802002010B50023E1
:101AB000014607221846FFF731FF00210E2000F0F3
:101AC00006F80021BDE810400F20AFF3008070B58C
:101AD0000C46054603F07CFCD02003F0A9FC28B995
:101AE000284603F0A5FC204603F0A2FCBDE87040A8
:101AF00003F086BC0020074A014600BF52F821309F
:101B000013F0FF4F00D00120491CC9B20829F5D3BA
:101B100070470000A8A4002000200549024600BF2D
:101B200041F82020401CC0B20828F9D370470000BB
:101B3000A8A40020704700002DE9F05F324DDFF8C7
:101B4000C0B0DFF8C09000244FF0600AA5F1FA069B
:101B50004FF6FF782046FEF7A0FD5946FEF790FBB2
:101B60002A49FEF7BFFBFEF7AAFD80B2484490F871
:101B7000A610AAEB5101022900DA0221285D821D7C
:101B80008A4201DA001D07E0821C8A4201DA2A55E6
:101B900003E0401C884200DA2855285D8A1D9042E7
:101BA00001DD001F08E08A1C904201DD801E03E079
:101BB000491C884201DD401E2855305D295DC21C4C
:101BC0008A4202D9A1F1030002E002D200F1010031
:101BD000305508EA44074FF00F034FF05F023846D4
:101BE00001F072F8305D0623401CC2B2C1B2384623
:101BF00001F06AF8641CA4B2982CABD3BDE8F09F46
:101C000000003443A05000206A0300200000184365
:101C10002DE9F05FDFF820A1DFF818B100244FF0C4
:101C20000309AAF1FA082046FEF737FD4349FEF7FB
:101C300027FB4349FEF756FBFEF741FD80B25844AF
:101C400090F8A600B0FBF9F0C0F14801022900DAD3
:101C500002211AF804005546821D8A4201DA001D4D
:101C600007E0821C8A4201DA2A5503E0401C8842C0
:101C700000DA2855285D8A1D904201DD001F08E02A
:101C80008A1C904201DD801E03E0491C884201DD70
:101C9000401E285518F80400295DC21C8A4202D94A
:101CA000A1F1030002E003D200F1010008F80400F2
:101CB00004EB4407B8B24FF00F034FF0470201F0B6
:101CC00003F87E1C295DB0B20F23472200F0FCFF11
:101CD000285D0523C0F1480090FBF9F04730C1B200
:101CE000B8B2472200F0F0FF285D0523C0F148019B
:101CF00091FBF9F04730C1B2B0B2472200F0E4FFE7
:101D000018F804004546401CC2B2C1B2B8B206235E
:101D100000F0DAFF285D0623401CC2B2C1B2B0B2A7
:101D200000F0D2FF641CA4B2662CFFF47CAFBDE8C7
:101D3000F09F0000A05000206A0300200000344300
:101D40000000C8422DE9F05FDFF84C9100244FF00D
:101D5000010B2046FEF7A1FC5049FEF791FA5049CD
:101D6000FEF7C0FAFEF7ABFC81B24E48084490F88B
:101D7000A6106020A0EB5102042A00DA042219F810
:101D8000041048468B1D934201DA091D07E08B1CA5
:101D9000934201DA035503E0914201DA491C0155EF
:101DA000015D931D994201DD091F07E0931C9942D3
:101DB00001DD891E02E0914201DD491E0155364ECA
:101DC00019F80400FA3E315DCA1C824208D9A0F11C
:101DD0000300305506F5FA704FF00001015510E090
:101DE0000FD22D4800F1FA00025D12B101F102019B
:101DF00002E0042902D3C91E315502E009B100F8FE
:101E000004B0315D0423481CC2B24FF6FF7000EAF3
:101E10008405284600F058FF315D0BEB8408481C10
:101E2000C2B21FFA88F0082300F04EFF315D042390
:101E3000481CC2B2022000EB8407BA46B8B200F0D8
:101E400043FF4E4619F8041028460A235F2200F08B
:101E50003BFF315D1FFA88F00F235F2200F034FF53
:101E6000315DB8B20A235F2200F02EFF5F2708E041
:101E70001FFA8AF2F9B22846002300F068FEBF1E5E
:101E8000BFB2305DB842F3D9641CA4B24C2CFFF44D
:101E900060AFBDE8F09F00006A03002000003443FB
:101EA00000001843A05000202DE9F05FDFF8C0B01B
:101EB000DFF8C090304DDFF8C48000244FF0600A96
:101EC0002046FEF7EAFB5946FEF7DAF92C49FEF701
:101ED00009FAFEF7F4FB80B2484490F8A600AAEB9A
:101EE0005001022900DA0221285D00F10A028A422B
:101EF00001DA001D07E0C21C8A4201DA801C02E000
:101F0000884201DA401C2855C0B201F10A02904211
:101F100001DD001F07E0CA1C904201DD801E02E0C7
:101F2000884201DD401E285504EB440086B228F8A3
:101F3000246008EB8407295D798003235F22304603
:101F400000F0C2FEA7F80063285D641C401EA4B226
:101F5000A7F80203662CB3D30D226621074800F0D0
:101F60006FFEBDE8F05F09226621064800F068BEFA
:101F700000003443A05000206A030020623E00208D
:101F80000000C842624100202DE9F047DFF8C09010
:101F9000DFF8C0A0304F314D314E00244FF03008F3
:101FA0002046FEF77AFB4946FEF76AF95146FEF7EE
:101FB00099F9FEF784FB80B2384490F8A610A8EB9C
:101FC0009101022900DA0221285D00F10A028A4209
:101FD00001DA001D07E0C21C8A4201DA801C02E01F
:101FE000884201DA401C2855C0B201F10A02904231
:101FF00001DD001F07E0CA1C904201DD801E02E0E7
:10200000884201DD401E285504EB440080B226F8CA
:102010002400295D06EB8402C1F160035180A2F81F
:102020000003A2F80233DAB2052300F04DFE641C6F
:10203000A4B2662CB4D30D226621094800F000FE3C
:10204000BDE8F0470D226621064800F0F9BD00000A
:10205000000034430000C842A05000206A03002062
:10206000623E0020624100202DE9F05FDFF810A100
:10207000DFF810B1DFF81081444D454E00244FF0D9
:1020800030094FF6FF772046FEF707FB5146FEF773
:10209000F7F85946FEF726F9FEF711FB80B24044E7
:1020A00090F8A600A9EB9001022900DA0221285D30
:1020B00000F10A028A4201DA001D07E0C21C8A42CE
:1020C00001DA801C02E0884201DA401C2855C0B2C7
:1020D00001F10A02904201DD001F07E0CA1C904294
:1020E00001DD801E02E0884201DD401E2855E00728
:1020F00014D007EA440126F82410285D06EB840278
:10210000431E5080A2F80013A2F80233620806EBC7
:102110008202A2F80016A2F8020616E007EA4400BE
:1021200026F824002B5D06EB8401C3F160024A808F
:10213000A1F80003C3F15F03A1F80233610806EBC5
:102140008101A1F80009A1F80229641CA4B2982C0D
:1021500099D305224C210F4800F072FD05224C2135
:102160000D4800F06DFD0D229821094800F068FD32
:10217000BDE8F05F0D229821084800F061BD000025
:102180000000344300001843A05000206A030020E0
:10219000623E00206244002062470020624100202D
:1021A00010B54FF4807001F0C7F90448007800289A
:1021B00002D003490120087010BD00000600002075
:1021C0006E0100207047000018B50F480221A0F1F1
:1021D00059040378E078032223B11E2807D26173E3
:1021E000401C02E018B16173401EE07000E06273B1
:1021F00006480090E0782E23C0F198001E2233217B
:1022000005F062F9607B18BDCD010020BFE6000833
:1022100078B51A48194C02254379194919480326FB
:10222000593C09780078227E8BB1637E052B0BD94F
:102230000A2A05D2521CD2B22276E575124B0CE066
:10224000E67503F045FD16E05B1C637613E07AB19A
:10225000521ED2B222760D4BE575A2EB820201EB43
:10226000420100933F231C223C3105F02DF902E08E
:1022700000206076E675E07D78BD0000CD0100208D
:102280000D0000200C000020CB0B01083F2E0108A0
:1022900038B51A4C02220325174B616B012803D075
:1022A00002280ED098B124E0022903DD891E616363
:1022B000227300E0257300935F2339224020616B75
:1022C00015E0002901DA891C04E0257309E0602982
:1022D00003D2C91C6163227303E025736FF06100B0
:1022E00060630093616B5F2339224020491C05F035
:1022F000EBF8207B38BD0000E48E00207401002044
:1023000018B513480221A0F159044378E07B032259
:102310001BB1172806D2401C01E018B1401EE07323
:10232000A17300E0A2730B480090E07B26231722E4
:102330000021173805F0C8F807480090E07B2323F8
:1023400017223421173805F0BFF8A07B18BD000014
:10235000CD01002030E000089AE3000870B5124873
:10236000114C022581780320593C627C69B1822A94
:1023700003D2921C6274257400E020748823627C6E
:102380002F21002000F0E3FB0BE04AB100232F21B6
:10239000184600F0DCFB607C801E6074257400E051
:1023A0002074207C70BD0000CD01002038B5154898
:1023B0000221A0F15904C378134DE07C032283B1BC
:1023C0001C2803D2401CE074A17400E0A2740095A4
:1023D000E07C1023C0F198001C22142105F074F851
:1023E00005E018B1401EE074A17400E0A2740095ED
:1023F000E07C1023C0F198001C22142105F064F841
:10240000A07C38BDCD010020ABEE00082DE9F041E5
:102410001F4D00262E7103F043F81E484FF47A71C9
:1024200040F6B8328180C181C280028201831A4A9B
:102430001AA105F12E0007F005FEDFF864800024E4
:102440004FF49677002004F051FE204606F090F9F4
:10245000642C01DD00F026F8287890B12E70B8F8D1
:10246000061098F8020004F075FA204606F080F98C
:10247000204605F0F3FF642C01DD00F013F805F0B1
:1024800021FAA41DBC42DDDB01202871BDE8F081EA
:1024900000000020A0500020785200202534730056
:1024A0008C500020FEB533490120334A08712821A1
:1024B0000A2005F09FFA304A28210A3A562005F0F2
:1024C00099FA2D4A4821143A022005F051FA2A4A75
:1024D00048211E3A1B2005F04BFA284A4821342097
:1024E00005F046FA264C1E250221E0884FF07E5664
:1024F000B0FBF5F00090CDE9016108234B223021BB
:102500004A2004F08DFA208A0321B0FBF5F00090F8
:10251000CDE9016108234B223021E22004F080FA4A
:10252000208B0A25B0FBF5F0042100900E07CDE9C1
:1025300001611523922249219A2004F071FAA088A2
:102540000521B0FBF5F00090CDE901610F23922247
:102550000C21022004F064FAE0890621B0FBF5F0BA
:102560000090CDE901610F2392220C219A2004F002
:1025700057FAFEBDCD010020A05200202E00002001
:10258000A050002070B5FFF741FF0025264E274CD4
:1025900043E02078F0B32570A07878B1234824A1D7
:1025A0002E3007F04FFD608C401C80B26084FA280A
:1025B00022D36584A5700620A0831DE0708B42F2B3
:1025C0000F71884206D819481B4A1CA12E3007F00B
:1025D00039FD11E04FF47A71B0FBF1F10A22B1FB41
:1025E000F2F302FB131342F21071B0FBF1F20F4849
:1025F00013A12E3007F026FD002004F077FD1348CC
:10260000C188807804F0A6F9114804F0F3FDFFF7C3
:1026100049FF00E001E005F055F9A08B0528B8D08E
:10262000BDE8704000F016B8A05000200000002067
:1026300052455354000000007852002025347300A6
:102640002531642E25316447000000008C500020A5
:10265000ABDC01082DE9F041214E0024347102F079
:102660001FFF204A20A106F12E0007F0EBFC1F48B7
:10267000DFF87C804FF496758480C481C480048226
:1026800004834FF4D277002004F030FD284606F092
:102690006FF8642D01DDFFF705FF307890B13470DD
:1026A000B8F8061098F8020004F054F9284605F02E
:1026B000D5FE284606F05CF8642D01DDFFF7F2FE3A
:1026C00005F000F9BD4202DDFFF714FA08B1AD1FB5
:1026D000D9D5FFF721FA01203071BDE8F081000063
:1026E000000000207852002025347300A050002004
:1026F0008C5000202DE9FF4F8BB015000E4604468C
:102700007DD07019CDE9090427468346602805DA93
:102710000BF0FF01B8B20E9A00F0B8FA701B0894E3
:102720000390009004D4C1B2A0B20E9A00F0AEFAA9
:1027300060190296814601960790B0F5987F05DAF8
:10274000F1B21FFA89F00E9A00F0A0FA601BCDE9F1
:1027500005608046B2465FEA080005D4F1B21FFA70
:1027600088F00E9A00F092FA012D48D068420321B9
:1027700001EB40000026049099E00498002804DA58
:1027800000EB8600801D04901AE0711B00EB8100B5
:102790000A3004900998ABF1010B401E0990009893
:1027A000A9F10109401C0090039808F10108401CA0
:1027B00003900798401E07900698401C6D1E0690D7
:1027C0000A98641C401E0A900898761C401E0890C7
:1027D00001987F1C401C01900598AAF1010A401C39
:1027E00005900298401E0290B7F5987F0ADCBBF175
:1027F000000F07DB0BF0FF01B8B20E9A00E059E0C2
:1028000000F044FA0A98002808DB0998002805DB44
:10281000C1B20A980E9A80B200F038FAB4F5987FE7
:1028200007DC0098602804DCC1B2A0B20E9A00F068
:102830002DFA0898002808DB0398602805DCC1B24F
:1028400008980E9A80B200F021FAB9F5987F08DC5A
:102850000198002805DBC1B21FFA89F00E9A00F03A
:1028600015FAB8F1000F08DB0598002805DBC1B2A6
:102870001FFA88F00E9A00F009FA0798B0F5987FD1
:1028800008DC0298602805DCC1B207980E9A80B275
:1028900000F0FCF90698002809DBBAF1600F06DCAD
:1028A00006980AF0FF0180B20E9A00F0EFF9AE42EE
:1028B000FFF663AF0FB0BDE8F08F2DE9FF4F97B083
:1028C0001700894605467ED009EB07001290059552
:1028D00006950D90602804DAC1B2A8B21A9A00F0E9
:1028E000D5F9B9EB070010950C9513900B9004D413
:1028F000C1B2A8B21A9A00F0C9F9EE19CDE908964A
:102900004846CDF83C90B6F5987F06DAC1B2B0B231
:102910001A9A00F0BBF9314601E04FF49871E81BB8
:10292000044600D500208AB209F0FF0180B21A9B4C
:1029300000F00DF9B4F1000ACB4605DB0BF0FF0106
:10294000A0B21A9A00F0A2F9012F3CD078420321DC
:1029500001EB40004FF0000814970E90F0E00E9845
:10296000002804DA00EB8800801D0E901DE014980A
:10297000641CA8EB00010E980AF1010A00EB81002B
:102980000A300E901498401E14900D98401E0D9021
:102990001298401E12900B98401C0B901398401CEC
:1029A00013900998401E761E0990069808F10108B8
:1029B000401C06900598401E05901098401C1090F1
:1029C0000C98401E00E0BFE00C900F984FF49877F1
:1029D000401C0F9008980BF1010B401E08900698C0
:1029E000A9F10109B84208DC0D98002805DBC1B245
:1029F00006981A9A80B200F049F9059800281CDB65
:102A00001298002805DBC1B205981A9A80B200F02E
:102A10003DF91298059B602801DD602002E0002846
:102A200000DA0020C3EB4501B94200DD39468AB225
:102A3000C1B298B21A9B00F08AF81098B84208DC2C
:102A40000B98602805DCC1B210981A9A80B200F089
:102A50001DF90C9800281CDB1398602805DCC1B216
:102A60000C981A9A80B200F011F913980C9B602808
:102A700001DD602002E0002800DA0020C3EB450100
:102A8000B94200DD39468AB2C1B298B21A9B00F051
:102A90005EF8BE4207DC0F98002804DBC1B2B0B27A
:102AA0001A9A00F0F3F8002C1CDBBBF1000F05DBD9
:102AB0000BF0FF01A0B21A9A00F0E8F85846BBF1FB
:102AC000600F01DD602002E0002800DA0020C4EB86
:102AD0004501B94200DD39468AB2C1B2A0B21A9BA3
:102AE00000F035F80998B84208DC0898602805DC41
:102AF000C1B209981A9A80B200F0C8F8BAF1000F72
:102B00001EDBB9F1600F06DC09F0FF011FFA8AF045
:102B10001A9A00F0BBF853464846B9F1600F01DD40
:102B2000602002E0002800DA0020CAEB4501B9422B
:102B300000DD39468AB2C1B298B21A9B00F007F89C
:102B400014998845FFF60BAF1BB0BDE8F08F2DE957
:102B5000F04115461E460F460446A84201D92546B7
:102B6000144632463946204600F090F8641CA4B260
:102B7000A542F6D2BDE8F0812DE9FF5F05460C467F
:102B800003989346511B021B4FF0FF36002902DDCC
:102B90004FF0010701E005DA3746002A0BDD4FF060
:102BA000010613E00E9BC2B204B0E1B2A8B2BDE8C8
:102BB000F05F00F089B809DB0E9B04B01FFA8BF2BE
:102BC000E1B2A8B2BDE8F05FFFF7C1BF794372433D
:102BD0004FEA41094FEA4208914214DBA8EB010A8F
:102BE000A8EB09090CE0E1B2A8B20E9A00F04EF889
:102BF0003D44BAF1000F01DAC24401E0CA44344452
:102C00005D45F0D114E0A9EB020AA9EB08080CE03D
:102C1000E1B2A8B20E9A00F039F83444BAF1000FCC
:102C200001DACA4401E0C2443D4403988442EFD132
:102C30000E9A04B0E1B2A8B2BDE8F05F00F026B889
:102C40002DE9F8430D00044691461DD0012D04D115
:102C500034F8020B217800F019F834F8020B012740
:102C600034F8021B0EE000BF34F8028B34F8026B1C
:102C700042463346CDF80090FFF77EFF7F1C40466A
:102C80003146FFB2AF42EFD3BDE8F88330B5B0F5BF
:102C9000987F15D25F2913D8C5070F236D0FAB405E
:102CA000084C400800EB400004EB40102AB1445CA3
:102CB00012011C40EA40224301E0425C1A404254A7
:102CC00030BD0000245400202DE9F04115461E4679
:102CD00007460C46A94201D90D4614463246214604
:102CE0003846FFF7D3FF641CE4B2A542F6D2BDE834
:102CF000F0812DE9F0411746DDF818801E460D469B
:102D00000446B84201D914460746B54201D91D46CA
:102D10000E46B54207D1BAB2E9B2A0B24346BDE809
:102D2000F041FFF714BFBC420ED1F2B2E9B2A0B23B
:102D30004346BDE8F041FFF7C7BFBAB2E9B2A0B25F
:102D40004346FFF704FF6D1CB542F6D9BDE8F0819C
:102D50002DE9F04115461E460F460446A84201D90A
:102D60002546144632463946204600F006F8641CD3
:102D7000A4B2A542F6D2BDE8F08107F073B82DE900
:102D8000F04115461E4607460C46A94201D90D469C
:102D90001446324621463846FFF7EFFF641CE4B282
:102DA000A542F6D2BDE8F0812DE9F0411746DDF8E5
:102DB00018801E460D460446B84201D914460746FF
:102DC000B54201D91D460E46B54207D1BAB2E9B2A5
:102DD000A0B24346BDE8F041FFF7BABFBC420ED1F6
:102DE000F2B2E9B2A0B24346BDE8F041FFF7C7BF77
:102DF000BAB2E9B2A0B24346FFF7AAFF6D1CB542D2
:102E0000F6D9BDE8F0810000F8B50024009490F8F0
:102E100024202546012A12D0012280F824204A6865
:102E20001F23072A0DD20668776B521E02EB82021F
:102E300093409F430B6893401F43776319E0022040
:102E4000F8BD06680D2A0AD2376BD21F02EB820248
:102E500093409F430B6893401F43376309E0F76A31
:102E60000D3A02EB820293409F430B6893401F434D
:102E7000F7620A68072306680A2A0AD3F7680A3A3B
:102E800002EB420293409F438B6893401F43F760DD
:102E900008E0376902EB420293409F438B689340FE
:102EA0001F4337610A68102A01D0112A20D1124B22
:102EB00002689A4217D193681B0219D4936843F4AD
:102EC000000393600968102912D10C490C4A096863
:102ED000B1FBF2F101EB8101490000E0491E0091D4
:102EE0000029FBD104E0816A41F0200181620124C4
:102EF00080F824502046F8BD0024014070010020D5
:102F000040420F002DE9F04104004FF000057FD052
:102F1000A06A002628B9E66284F82460204600F002
:102F200081F82046FDF7A6FDA16AC90600D420B1AC
:102F3000A06A40F01000A0626AE0A16A21F4885102
:102F400041F00201A162334923688B42E16904D157
:102F5000B1F5402F01D14FF40021E7684FF4807C98
:102F600041EA470261680A43A168614508D0012926
:102F700006D00021D4F814E0BEF1010F02D00AE01F
:102F80006146F7E7C7B1A76A47F02007A762E76A7B
:102F900047F00107E7625F6827F469470F435F6006
:102FA000236899681C4F394011439960A1686145B5
:102FB0000BD0012909D00CE0DFF860E0A7690EEB27
:102FC00047370F4347F40061E5E7218A0D05A5F572
:102FD00080152168CB6A23F470032B43CB622168F0
:102FE00089680F4B1940914208D1E662A16A21F02D
:102FF000020141F00101A162BDE8F081A06A20F068
:10300000020040F01000A062E06A40F00100E062BF
:103010000120F1E7003C0140FDF7E1FF00E0FFFF88
:10302000FE0E1FFF00B585B00021009101910291B5
:10303000039100680E49884218D10E48816941F415
:1030400000718161816901F400710491816941F02D
:10305000040181618069694600F004000490012048
:10306000009003200190044800F072FA05B000BD02
:1030700000240140001002400008014001680A6875
:1030800022F00E020A6001680A6822F001020A605A
:1030900090F84020C36B012101FA02F25A6080F8D7
:1030A0002110002180F82010084670472DE9F05FBC
:1030B00090F821100024022903D004218163012407
:1030C00085E001680A6822F00E020A6001680A6859
:1030D00022F001020A603F4E3E4FB215DFF8F4C005
:1030E000DFF8F090DFF8ECA0DFF8E8B0DFF8E4E01C
:1030F0000168783F13011502ACF1640CA9F1500985
:10310000AAF13C0AABF1280BAEF1140E4FF4801873
:10311000B14227D9B9420ED0614512D049451DD0E0
:10312000514518D0594518D0714501D1424615E096
:10313000294EB14201D1012210E0274E1436B1428E
:1031400001D110220AE0244E2836B14206D0224A8C
:103150003C32914201D11A4600E02A461E49091F1D
:103160000A602BE0B94213D0614517D0494522D0FF
:1031700051451DD059451DD0714501D142461AE037
:10318000B14202D14FF0807215E0134EB14201D12D
:10319000012210E0104E1436B14201D110220AE093
:1031A0000D4E2836B14206D00B4A3C32914201D135
:1031B0001A4600E02A46074980394A60012180F812
:1031C0002110002180F82010416B01B18847204672
:1031D000BDE8F09F80000240080402402DE9F05F46
:1031E000C16B0A6801680B68046C4FF0040808FAA8
:1031F00004F8844D844E854FDFF814C2DFF8149232
:10320000DFF814A2DFF814B2DFF814E218EA020FB4
:1032100065D05FEA437862D50A68920603D40A68EB
:1032200022F004020A60DFF8F0814FF48062016846
:1032300008F1140813011402414524D9A9420DD004
:10324000B1420FD0B9421AD0614515D0494515D0C9
:10325000514501D1120312E0594501D104220EE07B
:10326000714501D140220AE06D4D1435A94206D0C6
:103270006B4A2832914201D11A4600E02246674942
:10328000091F0A6029E0A94213D0B14215D0B94202
:1032900020D061451BD049451BD0514502D14FF488
:1032A000800217E0414502D14FF0806212E059459B
:1032B00001D104220EE0714501D140220AE0584DAF
:1032C0001435A94206D0564A2832914201D11A46F5
:1032D00000E022464B4908394A60C16A71E04FF06C
:1032E000020808FA04F818EA020F70D05FEA83783F
:1032F0006DD50A68920606D40A6822F00A020A60AE
:10330000012180F82110DFF810814FF4007201686C
:1033100008F1140813011402414524D9A9420DD023
:10332000B1420FD0B9421AD0614515D0494515D0E8
:10333000514501D1120312E0594501D102220EE09C
:10334000714501D120220AE0354D1435A94206D03D
:10335000334A2832914201D11A4600E022462F49D1
:10336000091F0A6029E0A94213D0B14215D0B94221
:1033700020D061451BD049451BD0514502D14FF4A7
:10338000001217E0414502D14FF0007212E059459A
:1033900001D102220EE0714501D120220AE0204D28
:1033A0001435A94206D01E4A2832914201D11A464C
:1033B00000E02246134908394A60002180F82010B5
:1033C000816A00291CD0BDE8F05F0847FFE70825A7
:1033D000A540154214D01A0712D50A6822F00E0231
:1033E0000A6090F84020C36B012101FA02F25A6092
:1033F000816380F82110002180F82010016BE0E744
:10340000BDE8F09F080002401C000240300002406E
:1034100044000240580002406C0002400804024090
:103420001C04024030B560B11A4B026814219A4264
:1034300009D2194B1344B3FBF1F189000164174918
:103440000AE0012030BD134B5B421344B3FBF1F1A2
:10345000890001640F490839C163022180F82110F5
:10346000136843F6F0718B43F0E901142143D0E96E
:1034700002452C4321430469214344692143846963
:1034800021431943116000214163012242770177F2
:10349000084630BD08040240F8FFFDBF00000240AE
:1034A00070B5044690F82000002501280CD00120BA
:1034B00084F8200094F821600020012E06D084F8C2
:1034C00020000225284670BD022070BD022684F827
:1034D0002160A0632068066826F001060660204689
:1034E000FEF706FAE06A00282068016802D041F081
:1034F0000E0106E021F0040101602068016841F03E
:103500000A0101602068016841F001010160D9E70A
:1035100070B5044600F01AF90546601C02D0044854
:103520000078044400F012F9401BA042FAD370BDA9
:103530005C02002070470000044910B50A6802428E
:1035400002D00860FFF7F6FF10BD00001404014030
:103550002DE9F84FDFF8B8A100220AF1040B144658
:1035600001274FF00F090BF1040E00BF0B6807FA9B
:1035700004F52B40AB4274D1DFF898C14E68A6EB3E
:103580000C0866452BD00DDC032E34D005DC36B399
:10359000012E19D0022E2FD11BE0112E16D0122E83
:1035A0002AD119E0B8F5881F19D006DCB8F5803F9C
:1035B00015D0B8F5801F1FD111E0B8F5001F0ED04F
:1035C000B8F5041F18D10AE0CA6815E0CA68121DD0
:1035D00012E0CA6808320FE0CA680C320CE08A6850
:1035E0002AB1012A4FF0080203D0456104E0042209
:1035F00002E0056100E00022FF2B01D8064601E051
:1036000000F104064FEA840501D9A5F12005D6F89A
:1036100000C009FA05F82CEA080C02FA05F54CEA94
:10362000050CC6F800C04D68ED006AD53A4DAE698C
:1036300046F00106AE61AD6924F0030605F0010510
:103640000095364D06EB050CDCF80850A6074FEA4E
:10365000167809FA08F6B543314EB04202D1002679
:103660001AE04EE02F4EB04201D1012614E02E4E5A
:10367000B04201D102260FE02C4EB04201D1032608
:103680000AE02B4EB04201D1042605E0294EB0429B
:1036900001D1052600E0062606FA08F62E43CCF8EE
:1036A00008604D68DAF80060ED03554601D51E4309
:1036B00000E09E432E604D68AD0305D5DBF8006049
:1036C0001E43CBF8006004E0DBF800509D43CBF8CC
:1036D00000504D68DEF80060ED02754601D51E43CE
:1036E00000E09E432E604D68AD0205D5084D0C35B7
:1036F0002E681E432E6004E0054E0C3635689D434F
:103700003560641C102CFFF431AFBDE8F88F000069
:1037100000040140000011100010024000000140B0
:1037200000080140000C014000100140001401405D
:1037300000180140001C0140C2684A40C260704746
:103740000AB1016170470904FBE700000148806885
:10375000704700005C020020024881680278114432
:10376000816070475C020020074810B5016841F095
:1037700010010160032000F073F8002000F006F84B
:1037800000F024F8002010BD0020024070B50D4D5F
:1037900004464FF47A712878B1FBF0F00A490968C1
:1037A000B1FBF0F000F06CFE48B9102C07D20022FB
:1037B0002146501E00F034F800206C6070BD0120DE
:1037C00070BD00005C020020700100200C4808B5AC
:1037D000816941F001018161816901F0010100917C
:1037E000C16941F08051C161C06900F08050009012
:1037F0000448416821F0E06141F00071416008BD7A
:10380000001002400000014000F01F020121914021
:103810004009800000F1E020C0F80011704700006E
:10382000F0B40E4B1B680C46C3F30223C3F107052B
:10383000042D00D90425191D072901D2002300E019
:10384000DB1E012606FA05F1491E214099409E40E3
:10385000761E16403143F0BC03F024B80CED00E0B6
:10386000064900F0070208684FF6FF03184040EAD7
:103870000220034A10430860704700000CED00E08E
:103880000000FA052DE9F84305460078354CC007DD
:1038900054D0E0690026C00008D4E06940F08050B0
:1038A000E061E069012600F0805000902E48016838
:1038B000C90512D40168804641F480710160FFF7A8
:1038C00045FF074605E000BFFFF740FFC01B642827
:1038D00023D8D8F80000C005F6D5206A10F440704F
:1038E00021D0A98801F4407181421CD0206A1F496F
:1038F000012220F440700A6000220A602062C007A2
:1039000011D0FFF723FF074641F2883808E000BFD7
:10391000FFF71CFFC11B414502D90320BDE8F88316
:10392000206A8007F4D5206A696820F44070084353
:1039300020621EB1E06920F08050E06128788007A5
:1039400005D56068A96820F4404008436060287885
:10395000C00605D56068696920F48000084360608E
:103960000020DBE7001002400070004040044242AB
:103970002DE9F047DFF8548105460E46D8F80000DF
:1039800000F00700B0420CD2D8F8001021F0070177
:103990003143C8F80010D8F8000000F00700B0422A
:1039A0006FD128684A4C810712D5400703D560685B
:1039B00040F4E06060602878000703D5606840F458
:1039C000605060606068A96820F0F00008436060A3
:1039D0002878C00744D06868012816D021680228DA
:1039E00016D0890700294CDA616821F003010143F0
:1039F0006160FFF7ABFE6968074641F28830012934
:103A00000ED00229814618D026E021688903E9E713
:103A10008901E7E7FFF79AFEC11B494501D918E084
:103A200081466068C0F381000128F3D118E000BF2F
:103A3000FFF78CFEC11B49450BD86068C0F38100BD
:103A40000228F5D10CE000BFFFF780FEC11B4945FD
:103A500002D90320BDE8F087606810F00C0FF3D1A5
:103A6000D8F80010404601F00701B1420BD90168B7
:103A700021F0070131430160006800F00700B04207
:103A800001D00120E6E72878400705D56068E9689D
:103A900020F4E060084360602878000706D560687D
:103AA000296920F4605040EAC100606000F036F8F7
:103AB0006168084AC1F30311515CC84006490860B7
:103AC0000020FFF763FE0020C4E700000020024052
:103AD000001002401CAB000870010020044805499A
:103AE00000684968044AC1F30221515CC84070472C
:103AF00070010020001002402CAB0008044805496A
:103B000000684968044AC1F3C221515CC84070474B
:103B100070010020001002402CAB000812A185B0FB
:103B20000FC98DE80F0014A0144A00680490516872
:103B3000134801F00C03042B10D0082B0ED1C1F355
:103B40008343C9031DF803000AD5516804AAC1F3D1
:103B50004041515C0A4A5043B0FBF1F005B0704758
:103B600008494843FAE7000002030405060708096C
:103B70000A0B0C0D0E0F1010010200000010024085
:103B800000127A0000093D002DE9F84F0446007844
:103B9000B94DC00748D06868C0F38100012807D03C
:103BA0006868C0F38100022809D16868C00306D59F
:103BB0002868800338D5606800286FD034E06068DA
:103BC000B0F5803F0BD010B1B0F5A02F11D0286810
:103BD00020F480302860286820F4802002E02868E3
:103BE00040F480302860606888B1FFF7AFFD06467A
:103BF00009E0286840F480202860F0E7FFF7A6FD80
:103C0000801B642875D828688003F7D50CE0FFF77F
:103C10009DFD064605E000BFFFF798FD801B642868
:103C2000F0D828688003F7D42078944E80074FF0AE
:103C300001094FF000083BD5686810F00C0F07D061
:103C40006868C0F38100022809D16868C00306D4FF
:103C50002868800714D5206901281FD110E0206949
:103C6000B0B1C6F80090FFF771FD074605E000BF50
:103C7000FFF76CFDC01B0228C4D828688007F7D561
:103C80002868616920F0F80040EAC10028600FE070
:103C9000C6F80080FFF75AFD074606E0E9E000BFDE
:103CA000FFF754FDC01B022823D828688007F7D4EB
:103CB000207800072CD57248A169D9B1C0F80090CE
:103CC000FFF744FD074604E0FFF740FDC01B022854
:103CD0000FD8686A8007F7D56A484FF4FA51006830
:103CE000B0FBF1F0009000BF0098411E0091FAD2A5
:103CF0000EE080E0C0F80080FFF728FD074604E0F2
:103D0000FFF724FDC01B022875D8686A8007F7D426
:103D10002078400760D5E8690027C00008D4E8692A
:103D200040F08050E861E869012700F08050009081
:103D300055480168C90513D40168834641F4807170
:103D40000160FFF703FD824606E000BFFFF7FEFCBF
:103D5000A0EB0A0064284ED8DBF80000C005F5D5BA
:103D6000E06801280AD008B1052813D0286A20F09D
:103D700001002862286A20F0040002E0286A40F06E
:103D800001002862E06841F2883B98B1FFF7DEFC51
:103D900082460BE0286A40F004002862EEE700BF8C
:103DA000FFF7D4FCA0EB0A0159455AD8286A8007CE
:103DB000F6D50CE0FFF7CAFC824605E0FFF7C6FC2B
:103DC000A0EB0A0159454CD8286A8007F6D41FB1E8
:103DD000E86920F08050E861E06988B36968C1F360
:103DE0008101022945D00228C6F8608004D0FFF77F
:103DF000ADFC044638E034E0FFF7A8FC074604E0D9
:103E0000FFF7A4FCC01B02282BD828688001F7D438
:103E1000206AB0F5803F05D16868A16820F40030C1
:103E200008436860D4E908010843696821F4741103
:103E300008436860C6F86090FFF788FC044606E017
:103E400015E000BFFFF782FC001B022809D8286894
:103E50008001F7D50BE000BFFFF778FC001B0228BC
:103E600002D90320BDE8F88F28688001F4D400202F
:103E7000F8E70120F6E7000000100240000042428F
:103E800080044242700100200070004070B50400C0
:103E900005D00025A56294F8510010B106E001207C
:103EA00070BD84F85050204600F030F8022084F8AD
:103EB00051002068016821F040010160D4E901014E
:103EC0000843D4E903121143084361690843218B75
:103ED00001F400710843E1690843216A0843A16ABB
:103EE000084321680860A069042101EA1040616A62
:103EF0000843216848602068C16921F40061C161FC
:103F00006565012084F85100002070BD70B586B051
:103F10000025009501950295039506462D4C0368F2
:103F20002D4902200322A34236D18B6943F48053EA
:103F30008B618B6903F4805304938B6943F0040312
:103F40008B618969254C01F004010491A021CDE920
:103F50000010039269462046FFF7FAFA4020CDE9A7
:103F60000005694620460295FFF7F2FA1D4C1C48F1
:103F7000C4E900058020C4E9025025618001656123
:103F8000C4E906502046FFF74DFA08B1FEF71AF9CA
:103F9000F464666206B070BD134CA342FAD1CB69DB
:103FA00043F48043CB61CB6903F4804304938B6972
:103FB00043F008038B618969039201F008010491C1
:103FC0004FF42041CDE9001069460848FFF7C0FAD8
:103FD000E0E700000030014000100240000801400E
:103FE0001C000240444B002000380040000C0140FF
:103FF0002DE9F84F044640680026984617460D46BE
:104000004FF00409B0F5827F01D1A06890B194F817
:104010005000012819D04FF0010B84F850B0FFF781
:1040200095FB009094F851004FF0000A01280ED043
:1040300002267FE084F8519013460A462046CDF8C8
:10404000008000F031F9BDE8F88F0220FBE7002D79
:104050006FD0002F6DD084F85190C4F854A0A563A0
:10406000A787E787C4F830A0A4F834A0A4F836A046
:10407000C4F840A0C4F844A0A0684FF40047B84278
:1040800004D12068016821F4804101602068016842
:10409000490603D4016841F040010160E068B8B10D
:1040A00033E020688168C90706D0007B05F8010B62
:1040B000E08F401EE0870BE0B8F1000F23D0B8F18D
:1040C000FF3F05D0FFF742FB0099411A41451AD244
:1040D000E08F0028E5D11BE020688168C90706D081
:1040E000C06825F8020BE08F401EE0870DE0B8F1B4
:1040F000000F08D0B8F1FF3F07D0FFF727FB00996A
:10410000411A414501D3032614E0E08F0028E3D192
:104110006068B0F5827F0AD1A068B84202D0B0F5DD
:10412000806F04D12068016821F040010160606D5A
:1041300000B1012684F851B084F850A0304682E7DF
:104140002DE9F84F044690F850000026994617468E
:104150000D4601280DD04FF0010B84F850B0FFF749
:10416000F5FA804694F85100B246012804D00226A0
:1041700094E00220BDE8F88F002D7BD0002F79D08D
:10418000032084F85100C4F854A02563A786E7866D
:10419000C4F838A0A4F83CA0A4F83EA0C4F844A0F9
:1041A000C4F840A0A068B0F5004F04D120680168B1
:1041B00041F48041016020680168490603D4016828
:1041C00041F040010160E068B0F5006F606804D024
:1041D00030B3E08E012823D03EE010B1E08E0128FC
:1041E0001AD135F8021B206805E02068816889072C
:1041F00006D535F8021BC160E08E401EE0860BE05C
:10420000B9F1000F34D0B9F1FF3F05D0FFF79EFAA6
:10421000A0EB080149452BD2E08E0028E5D11EE035
:10422000216815F8010B087306E02068816889078A
:1042300006D515F8011B0173E08E401EE0860BE0E9
:10424000B9F1000F14D0B9F1FF3F05D0FFF77EFAA6
:10425000A0EB080149450BD2E08E0028E5D14B4682
:10426000012202212046CDF8008004F035F810B17B
:10427000032613E011E042464946204603F002FFC0
:1042800018B101262020606508E0A06818B92068F0
:10429000C16880680090606D00B1012684F851B05B
:1042A00084F850A0304665E72DE9F84F044690F8B1
:1042B000500000260A9F9A4693460D464FF001088B
:1042C00001280ED0012084F85000FFF73FFA814604
:1042D00094F85100616801280CD0B1F5827F07D1B4
:1042E00002E00220BDE8F88FA16809B9042801D0D6
:1042F0000226BDE055B1BBF1000F07D0BAF1000FA7
:1043000004D094F85100012802D004E00126AFE067
:10431000052084F8510000206065C4F838B0A4F886
:104320003EA0A4F83CA02563A4F836A0A4F834A0CD
:104330002064606420680168490603D4016841F084
:1043400040010160E068B0F5006F606804D0E8B338
:10435000E08E01283BD06AE010B1E08E01282ED11A
:10436000216835F8020BC860E08E401EE08626E02A
:10437000B8F1000F0DD0E08E58B120688168890730
:1043800007D535F8021BC160E08E401EE0864FF075
:104390000008E08F58B120688168C90707D0C0685D
:1043A0002BF8020BE08F401EE0874FF00108781CCD
:1043B00005D0FFF7CBF9A0EB0900B84246D2E08E5A
:1043C0000028D5D1E08F0028D2D136E0FFE7216860
:1043D00015F8010B0873E08E401EE08627E000BF51
:1043E000B8F1000F0DD0E08E58B1206881688907C0
:1043F00007D515F8011B0173E08E401EE0864FF0D3
:104400000008E08F58B120688168C90707D0C068EC
:104410000BF8010BE08F401EE0874FF00108781C7D
:1044200005D0FFF793F9A0EB0900B8420ED2E08E59
:104430000028D5D1E08F0028D2D13B4601220221AD
:104440002046CDF8009003F047FF08B103260FE0A7
:104450004A463946204603F015FE18B101262020B1
:10446000606505E0A06818B92068C16880680090A0
:10447000012084F85100002084F85000304631E7D4
:1044800010B5401EB0F1807F01D3012010BD4FF068
:10449000E02460610F21601702F004FA0020A0619F
:1044A00007202061002010BD7047704730B590F89C
:1044B0003C20012A20D0012280F83C20022380F8F1
:1044C0003D3003685C6824F070045C6003685C68DD
:1044D0000D682C435C6003689C6824F080049C6039
:1044E00003689C6849680C439C6080F83D2000216B
:1044F00080F83C10084630BD022030BD10B50400E5
:1045000003D094F83D0010B107E0012010BD002059
:1045100084F83C00204600F00DF8022084F83D00AD
:10452000211D206804F00AFC012084F83D000020D1
:1045300010BD000008B5274A0168274891420ED1F6
:10454000C16941F00401C161C069002200F00400AA
:10455000009011461E20FFF763F91E2034E01F4A29
:1045600091420ED1C16941F01001C161C0690022C0
:1045700000F01000009011463620FFF751F9362068
:1045800022E0174A91420ED1C16941F02001C16178
:10459000C069002200F02000009011463720FFF78C
:1045A0003FF9372010E00F4A914211D1816941F45F
:1045B000005181618069002200F400500090114692
:1045C0002C20FFF72DF92C20BDE80840FFF71CB97F
:1045D00008BD00000008004000100240001000402C
:1045E00000140040003401400168CA6842F0010232
:1045F000CA600068016841F0010101600020704755
:104600000168CA6822F00102CA600068016A41F2CA
:104610001112114207D1016A9210114203D10168AF
:1046200021F0010101600020704770B5044690F848
:104630003C00012817D0012584F83C50022084F862
:104640003D002068826822F0770222F47F42826077
:104650000868502837D00DDC202859D005DC88B3F5
:10466000102841D151E0022070BD302853D040289D
:104670003AD13FE060282ED070280BD0B0F5805F93
:1046800003D0B0F5005F2FD110E02068816821F0E1
:10469000070115E0CB68D1E90121206804F094FB03
:1046A0002168886840F0770088601DE0CB68D1E918
:1046B0000121206804F088FB2068816841F4804172
:1046C000816011E01EE0CA684968206804F08EFB32
:1046D0005021206806E0CA684968206804F097FB0A
:1046E0006021206804F07AFB84F83D50002084F8B3
:1046F0003C0070BDCA684968206804F077FB40211F
:104700002068EFE700212068ECE710212068E9E746
:1047100020212068E6E730212068E3E72DE9F04119
:1047200000682E49884256D12D48D0F804012D4DFD
:104730002D4C00264FF65F7770B12868016A39402A
:1047400001622868016A41F020010162286846621E
:10475000207840F010003DE00421224800F050FA9B
:1047600080B2608029680A6A3A400A6229680A6A47
:104770000A622178CA062AD50B064FF4F9721DD5B4
:10478000A0F22D13934202D86068400009E0A0F225
:1047900079524FF4C7739A4205D86068400040F0E0
:1047A0000100606013E0A0F6990098420FD860788D
:1047B000401C607001F0F000207008E0A0F580500F
:1047C0006938904203D841F08000207066702078EC
:1047D00020F010002070BDE8F0810000000C0040C7
:1047E00000002142C0B300205402002010B5040094
:1047F00003D094F83D0010B107E0012010BD002067
:1048000084F83C00204600F00DF8022084F83D00BA
:10481000211D206804F092FA012084F83D00002058
:1048200010BD0000144800B5C16985B041F0080111
:10483000C161C16901F008010491816941F004017D
:1048400081618069694600F00400049002200090B4
:104850000020019001200290032003900748FEF7FA
:1048600077FE002211463220FEF7DAFF3220FEF7F3
:10487000CBFF05B000BD0000001002400008014061
:1048800070B50446006801694FF00005C943890707
:1048900015D4C168C943890711D4E91E01610120FB
:1048A0002077206880698007204602D0FFF736FF16
:1048B00004E000F098F8204600F096F8257720688C
:1048C0000169C943490717D4C168C943490713D4CB
:1048D0006FF004010161022020772068806910F4E4
:1048E000407F204602D0FFF719FF04E000F07BF87C
:1048F000204600F079F8257720680169C943090747
:1049000016D4C168C943090712D46FF008010161C8
:10491000042020772068C0698007204602D0FFF776
:10492000FDFE04E000F05FF8204600F05DF825771A
:1049300020680169C943C90617D4C168C943C906BB
:1049400013D46FF010010161082020772068C0693E
:1049500010F4407F204602D0FFF7E0FE04E000F0B4
:1049600042F8204600F040F8257720680169C943E5
:10497000C90708D1C168C943C90704D1891E0161AB
:10498000204600F033F820680169C943090609D4BC
:10499000C168C943090605D46FF080010161204652
:1049A000FFF782FD20680169C943490609D4C1683F
:1049B000C943490605D46FF040010161204600F06B
:1049C00041F920680169C94389060BD4C168C9430C
:1049D000890607D46FF0200101612046BDE87040D0
:1049E000FFF763BD70BD7047704700002DE9F041CF
:1049F0007149074600680968DFF8C0810126002573
:104A00006F4C884242D12670608D401C80B20521D7
:104A1000B0FBF1F2608501FB120010B34046A28B9F
:104A2000038A012A2DD02046B8F80CC0808C811D45
:104A300089B2BCF1010F06D0BCF1020F14D0BCF159
:104A4000030F16D11DE0072A19D2DFE802F01A126F
:104A50001A0D040B1200801C81B2A184012003F006
:104A600021F911E0C01C81B2A184012003F0A4F956
:104A70000AE032222821002003F002F904E0A58395
:104A800002E0184603F048F903F06AF84D49386827
:104A9000884209D1A08B032804D1207D401C2075B9
:104AA000400701D103F0C8F84749386809688842CF
:104AB00009D1208D411C2185142804D9E670258553
:104AC0004148FFF79DFD414938680968884201D196
:104AD00005F000F93E4938680968884269D104F058
:104AE000A9F9A07948B360793A493B4A3B4B20B1D8
:104AF000022810D2FCF75AFC11E0B8F808700F80B9
:104B0000B8F80E101180278398F80A0000F008000A
:104B10001870667111E00A2805D200F0C1FC6079B6
:104B2000401C607109E008D14FF0190010804FF06F
:104B30000200088025831D70A683607826EA0000A5
:104B40006070207A18B126A004F0A4FD2572294FC8
:104B50003878A0B1E07988B1A08D4FF46161B0FBE5
:104B6000F1F201FB1201401CA0850A2903D0224862
:104B70008079182802D2FCF75BFFE5713D70E08C6C
:104B8000411CE184B0F5166F07D998F80A00400778
:104B900000D5A670E58404F013FD184801780029BB
:104BA00007D0A179002904D00570BDE8F04104F0D8
:104BB0008BBABDE8F0810000884B00208C500020AB
:104BC00000000020000C0040C84B0020484C002092
:104BD000084C00208E0100204802002074010020B3
:104BE0004D61726B5F43206973206F6E6C696E65F7
:104BF0000A000000440000203F0200204600002080
:104C000090F83C300022012B0AD0012380F83C3080
:104C100041B1042909D008290AD00C290DD10AE094
:104C20000220704701684A6B07E001688A6B04E064
:104C30000168CA6B01E001680A6C002180F83C1031
:104C400010467047704710B504460068416994F8F3
:104C50003920C1F3C011212A0BD151B1416921F092
:104C600080014161206B08B1FEF708FA204604F08C
:104C7000BBFA2068416994F83A20C1F38011222AD6
:104C80000BD151B1416921F040014161606B08B124
:104C9000FEF7F4F9204604F099FA002010BD000058
:104CA00000680A4982B088420ED10948006801684C
:104CB000C943090708D401684068009001220549EA
:104CC000034802B000F006BA02B070470048004046
:104CD0003C4F00204D00002070B50268044610686B
:104CE000D168536910F00F0F50D003F0010501F4A3
:104CF000907635435DD0C20705D0CA0503D5E26B77
:104D000042F00102E263420705D5DA0703D0E26B05
:104D100042F00202E263820705D5DA0703D0E26BB4
:104D200042F00402E263020705D5DA0703D0E26B22
:104D300042F00802E263E26B002A33D0800604D519
:104D4000880602D5204604F058FA20684069E16BD5
:104D5000C0F38010090700D428B3204604F036FAC7
:104D60002068416949061AD5416921F04001416135
:104D7000606BA0B11B494163606BFEF797F9002897
:104D800010D0606B416BBDE870400847830610D5BA
:104D90008B060ED52046BDE8704004F02EBA2046A2
:104DA000FFF77EFF70BD2046FFF77AFF0020E0632B
:104DB00070BD030606D50B0604D52046BDE870403D
:104DC00004F01EBB4006F3D54806F1D5D168204655
:104DD00021F04001D160202184F8391000F08FFAD1
:104DE00070BD00002D91000870B5040004D094F847
:104DF0003900002510B106E0012070BD84F838505C
:104E0000204600F023F8242084F839002068C16887
:104E100021F40051C160204604F03AFA206801698B
:104E200021F4904101612068416921F02A0141612A
:104E30002068C16841F40051C160E563202084F816
:104E4000390084F83A00002070BD00002DE9F043DD
:104E500085B0002500950195029503950446DFF87D
:104E6000BCC103686E48022103226E4F80264FF4B6
:104E700080684FF0100963454CD1836943F4804347
:104E80008361836903F480430493836943F00403DB
:104E900083618069039200F0040004900802CDE968
:104EA000000169463846FEF753FBCDE900856946A7
:104EB00038460295FEF74CFB5C4F5B48C7E900059E
:104EC000C7E902563D61B0017D61C7E90650384629
:104ED000FEF7A8FA08B1FDF775F967637C62534FD6
:104EE000514844371438C7E902563D617D61BD61C0
:104EF000FD61C7E900093846FEF794FA08B1FDF7ED
:104F000061F927630022114625207C62FEF788FCA8
:104F1000252053E0DFF818C1634554D1C36943F439
:104F20000033C361C36903F400330493836943F01E
:104F3000040383618069039200F00400049004205C
:104F4000CDE9000169463846FEF702FB0820CDE9AD
:104F50000005694638460295FEF7FAFA334F3248A3
:104F600088371430C7E90005C7E902563D614FF4A0
:104F700080587D61C7E906583846FEF753FA08B1F4
:104F8000FDF720F967637C62284F2748CC3728302B
:104F9000C7E902563D617D61C7E90009C7E90658C6
:104FA0003846FEF73FFA08B1FDF70CF927630022F7
:104FB000114626207C62FEF733FC2620FEF724FCF7
:104FC00005B0BDE8F0831B4CA342F9D1C36943F49B
:104FD0008023C361C36903F480230493836943F08E
:104FE000080383618069CDE9008100F00800CDE904
:104FF0000320114C69462046FEF7AAFAE014CDE9D9
:105000000005694620460295FEF7A2FA00221146E5
:105010002720FEF705FC2720D0E7000000380140DC
:105020000010024000080140580002407C4F002060
:105030000044004000480040000C0140F8B5044620
:1050400090F83A0020283CD1C1B3BAB394F83800A4
:10505000012836D0012084F83800A162A2850025FD
:10506000E563222084F83A00636B17489862636B0B
:105070001648D862636B16481863606B1346456325
:105080000846666B216802463046091DFEF708FA9D
:10509000206801684168009184F83850C16841F483
:1050A0008071C1602068416941F00101416120685F
:1050B000416941F0400141610020F8BDFFE7012056
:1050C000FBE70220F9E7000087910008C391000880
:1050D0003D91000890F83A30202B22D1F9B1F2B17D
:1050E00090F83830012B1CD081628285C285002166
:1050F000C163222280F83A2080F838100168CA681B
:1051000042F48072CA6001684A6942F001024A6151
:105110000068C16841F02001C16000207047012093
:10512000704702207047000070B50068324988421D
:1051300060D1324C01262046217A407A61B10025A7
:10514000282810D0A27904F11501282A15D0430689
:1051500019D0C82A1DD01DE000F01F01082904D174
:10516000A071267201E02572A571BDE87040234947
:10517000012209312248FFF7ADBF10B1FBF71CFF38
:1051800036E0CE7134E0C82A01D0082A02D1CE71AF
:1051900000E0CD7100F07F0001F094FBE0717F280A
:1051A00026D0A279082A06D0482A13D0882A0BD004
:1051B000C82A1DD117E002281AD20A7802F00F027D
:1051C00042EA0010087013E00A7802F0F00202438D
:1051D0000A700DE006280BD24A7802F00F0242EA6C
:1051E0000010487004E04A7802F0F00202434A706E
:1051F000E670B8E770BD00000048004044000020A1
:105200003C4F002070472DE9F843044690F83900E0
:105210001F4616460D46202850D1A5B19EB194F8E0
:10522000380001284AD0012084F838004FF00008E7
:10523000C4F83C80212084F83900FEF787FAA68460
:105240008146E68426E00120BDE8F883E08C401E1C
:10525000E084A0684B46B0F5805F4FF000024FF04D
:1052600080012046009703D004F0FBF8E8B90DE078
:1052700004F0F7F8C8B928882168C0F3080048602E
:10528000206908B16D1C05E0AD1C03E0216815F82C
:10529000010B4860E08C0028D8D14B460022402109
:1052A0002046009704F0DDF808B10320CCE7202069
:1052B00084F8390084F838800020C5E70220C3E76D
:1052C00090F83930202B18D1A9B1A2B190F838301C
:1052D000012B12D001628284C2840021C163212289
:1052E00080F8392080F838100068C16841F08001EA
:1052F000C16000207047012070470220704770474E
:105300000A2110B5B0FBF1F26423B0FBF3F401FB0A
:10531000120203FB1400B0FBF1F042EA0010C0B22D
:1053200010BDFEE770B5094C0025C4F8805104F5A6
:10533000C07402F007FC6560022005F00DFB01203F
:105340002060022005F008FB256070BD008021422E
:1053500070B5094C0025C4F8805104F5C07402F002
:10536000F1FB01236360022005F0F6FA23600220BE
:1053700005F0F2FA256070BD008021422DE9F04170
:10538000124C01260025C4F8846102F0CBFB0023F7
:105390001F466806050E022005F0DEFAC4F880619B
:1053A000022005F0D9FAD4F8040108B145F001054E
:1053B000C4F88071022005F0CFFA5B1CDBB2082B29
:1053C000E7D3C4F880712846BDE8F081008021420F
:1053D00010B502F0B7FB094B0120C3F88401C3F8F4
:1053E0008001042003F5C07305F0B6FA00245C6068
:1053F000042005F0B1FA1C6010BD000000802142BD
:1054000010B502F09FFB094B0020C3F88001C3F8E0
:105410008401042003F5C07305F09EFA0120186092
:105420005860BDE81040042005F096BA0080214283
:105430002DE9F04107464FF0000802F083FB0023FE
:10544000164C1E460125380602D5C4F8845101E0E9
:10545000C4F88461022005F07FFAC4F8805102206C
:1054600005F07AFAC4F8806178065B1C070EDBB29F
:10547000082BE8D3C4F8845104F5827402F052FB7F
:10548000022005F069FAE567022005F065FA206858
:10549000E66740EA0800C0B2BDE8F0810080214222
:1054A00010B52BA12C4804F0CDFD2B482BA10A30C0
:1054B00004F0C8FD28482CA1143004F0C3FD264890
:1054C0002CA11E3004F0BEFD234821A1283004F099
:1054D000B9FD214821A1323004F0B4FD1E4822A1BB
:1054E0003C3004F0AFFD1C4822A1463004F0AAFD78
:1054F000194817A1503004F0A5FD17481DA15A30D6
:1055000004F0A0FD14481EA1643004F09BFD124875
:105510001DA16E3004F096FD0F481DA1783004F0F7
:1055200091FD0D4818A1823004F08CFD0A4816A1A7
:105530008C3004F087FD084813A1963004F082FDFA
:10554000BDE810404FF4B5711348FAF736BE0000BD
:105550002D2D2E2D242000000A5200202D2D2D2D22
:105560004D687A20000000002D2D2E2D25252020AD
:10557000000000002D2D2D2D52706D200000000028
:105580002D2D2E2D252520002D2D2D2D0000000048
:105590002D2D2E2D00000000A0500020104810B529
:1055A000C48900210A230F4A0F48B4F5487F0AD95D
:1055B0004479641CE4B244710A2C03D3437105237B
:1055C0001380017110BDC82CFCD20479641CE4B2B4
:1055D00004710A2CF6D3037104231380417110BDAA
:1055E000A05000201C0000204400002010B5074AF5
:1055F00007A1084804F026FD064833384078002803
:1056000002D004492020887010BD000092AF002015
:1056100025357300330000202DE9F041234B002095
:105620005F2103F1FA0219541154401CC0B29828AA
:10563000F9D31F4C00272771FBF7B8FE1D4EDFF88A
:1056400078800025207840B36D1C2770EDB201F002
:10565000FFFBF188B07801F07DF9B088072805D20A
:10566000DFE800F00404070A0D101300FCF764FAE9
:105670000DE0FCF7CDFA0AE0FCF764FB07E0FCF76D
:1056800013FC04E0FCF780FC01E0FCF7EDFC02F009
:1056900019F904214046FEF74FF80F2DD2D301200F
:1056A0002071BDE8F04101F0D3BB00007002002082
:1056B000000000208C500020001401402DE9F04132
:1056C0001D4C00272771FBF771FE1C4EDFF8708020
:1056D0000025207840B36D1C2770EDB201F0B8FBB7
:1056E000F188B07801F036F9B088072805D2DFE8F4
:1056F00000F00404070A0D101300FCF71DFA0DE07A
:10570000FCF786FA0AE0FCF71DFB07E0FCF7CCFB90
:1057100004E0FCF739FC01E0FCF7A6FC02F0D2F84B
:1057200004214046FEF708F81E2DD2D30120207137
:10573000BDE8F04101F08CBB000000208C5000203F
:10574000001401402DE9F041FFF766FF00261D4CD3
:105750001D4D1E4F2EE0207860B32670A07818B142
:10576000A6700620A08328E001F072FBE988A878E3
:1057700001F0F0F8A888072805D2DFE800F004045B
:10578000070A0D101300FCF7D7F90DE0FCF740FAFB
:105790000AE0FCF7D7FA07E0FCF786FB04E0FCF729
:1057A000F3FB01E0FCF760FC02F08CF804213846C2
:1057B000FDF7C2FFA08B0328CDD0BDE8F041FFF775
:1057C0007DBF0000000000208C500020001401402C
:1057D0003EB5002410480094019402948460C46093
:1057E0000C4944610160012505614FF4602144606A
:1057F000C161FDF787FB08B1FCF7E4FCCDE900458A
:10580000694605480294FDF7FFFA002801D0FCF72D
:10581000D9FC3EBD00240140644A0020194808B567
:10582000416941F0010141614069002200F001003D
:10583000009011460C20FDF7F3FF0C20FDF7E4FF6C
:10584000002211460E20FDF7EBFF0E20FDF7DCFFD6
:10585000002211460F20FDF7E3FF0F20FDF7D4FFD4
:10586000002211461020FDF7DBFF1020FDF7CCFFD2
:10587000002211461120FDF7D3FFBDE8084011209A
:10588000FDF7C2BF001002402DE9F04F85B00026A1
:1058900061480096019602960396816941F02001C5
:1058A0008161816901F020010491816941F0100159
:1058B0008161816901F010010491816941F0040165
:1058C0008161816901F004010491816941F008015D
:1058D00081618069DFF8449100F0080004900122A2
:1058E000FF214846FDF72CFFDFF834A100221021EC
:1058F0005046FDF725FF012240F2FB214948FDF704
:105900001FFF4FF48057002239464648FDF718FF25
:105910004FF44078002241464846FDF711FF01222E
:105920004FF418415046FDF70BFFDFF8FCB00122A1
:1059300004215846FDF704FFFF200124CDE90004AF
:105940000320CDE9024069464846FDF701FE0225E5
:10595000102003958DE8510069465046FDF7F8FD8B
:10596000F920CDE90004029469462E480394FDF71E
:10597000EFFDCDE90054CDE9026469462948FDF701
:10598000E7FD00970395CDE9014669462548FDF7F7
:10599000DFFDCDF800800395CDE901466946484614
:1059A000FDF7D6FD200200902048CDE901046946AC
:1059B0005046FDF7CDFD4FF4C050009001AA1120D4
:1059C00082E8310069465046FDF7C2FDE003CDE9AB
:1059D000000469465046CDE90245FDF7B9FD0420B3
:1059E000CDE9000469465846CDE90245FDF7B0FD12
:1059F00060028DE8310069460A480394FDF7A8FD6E
:105A0000002211461720FDF70BFF1720FDF7FCFEC3
:105A100005B0BDE8F08F000000100240001001400A
:105A200000080140000C014000140140000021105A
:105A3000104810B50E4901604FF482714160002199
:105A400002228160C0E90312012242615202826196
:105A50000822C0E90721416281620A21C162FEF782
:105A600015FA002803D0BDE81040FCF7ABBB10BD11
:105A700000300140944A0020104810B50E490160E2
:105A80004FF48271416000218160C1604FF4007267
:105A90000161C0E905121022C2618022C0E908211B
:105AA00081620A21C162FEF7F1F9002803D0BDE846
:105AB0001040FCF787BB10BD00380040EC4A0020C6
:105AC00010B586B000241748009401940294039402
:105AD000049413490594016041F61F41C0E9011483
